{
  "_format": "hh-sol-artifact-1",
  "contractName": "Wallet",
  "sourceName": "contracts/Wallet.sol",
  "abi": [
    {
      "inputs": [
        {
          "internalType": "address",
          "name": "walletAddr",
          "type": "address"
        },
        {
          "internalType": "address[]",
          "name": "tokenAddr",
          "type": "address[]"
        }
      ],
      "name": "getBalances",
      "outputs": [
        {
          "components": [
            {
              "internalType": "address",
              "name": "token",
              "type": "address"
            },
            {
              "internalType": "uint256",
              "name": "balance",
              "type": "uint256"
            }
          ],
          "internalType": "struct Wallet.TokenBalance[]",
          "name": "",
          "type": "tuple[]"
        }
      ],
      "stateMutability": "view",
      "type": "function"
    }
  ],
  "bytecode": "0x608060405234801561001057600080fd5b5061063a806100206000396000f3fe608060405234801561001057600080fd5b506004361061002b5760003560e01c80636a385ae914610030575b600080fd5b61004a600480360381019061004591906102f7565b610060565b604051610057919061045d565b60405180910390f35b606060008383905067ffffffffffffffff8111156100815761008061047f565b5b6040519080825280602002602001820160405280156100ba57816020015b6100a76101fa565b81526020019060019003908161009f5790505b50905060005b848490508110156101ee5760405180604001604052808686848181106100e9576100e86104ae565b5b90506020020160208101906100fe91906104dd565b73ffffffffffffffffffffffffffffffffffffffff16815260200186868481811061012c5761012b6104ae565b5b905060200201602081019061014191906104dd565b73ffffffffffffffffffffffffffffffffffffffff166370a08231896040518263ffffffff1660e01b81526004016101799190610519565b602060405180830381865afa158015610196573d6000803e3d6000fd5b505050506040513d601f19601f820116820180604052508101906101ba9190610560565b8152508282815181106101d0576101cf6104ae565b5b602002602001018190525080806101e6906105bc565b9150506100c0565b50809150509392505050565b6040518060400160405280600073ffffffffffffffffffffffffffffffffffffffff168152602001600081525090565b600080fd5b600080fd5b600073ffffffffffffffffffffffffffffffffffffffff82169050919050565b600061025f82610234565b9050919050565b61026f81610254565b811461027a57600080fd5b50565b60008135905061028c81610266565b92915050565b600080fd5b600080fd5b600080fd5b60008083601f8401126102b7576102b6610292565b5b8235905067ffffffffffffffff8111156102d4576102d3610297565b5b6020830191508360208202830111156102f0576102ef61029c565b5b9250929050565b6000806000604084860312156103105761030f61022a565b5b600061031e8682870161027d565b935050602084013567ffffffffffffffff81111561033f5761033e61022f565b5b61034b868287016102a1565b92509250509250925092565b600081519050919050565b600082825260208201905092915050565b6000819050602082019050919050565b61038c81610254565b82525050565b6000819050919050565b6103a581610392565b82525050565b6040820160008201516103c16000850182610383565b5060208201516103d4602085018261039c565b50505050565b60006103e683836103ab565b60408301905092915050565b6000602082019050919050565b600061040a82610357565b6104148185610362565b935061041f83610373565b8060005b8381101561045057815161043788826103da565b9750610442836103f2565b925050600181019050610423565b5085935050505092915050565b6000602082019050818103600083015261047781846103ff565b905092915050565b7f4e487b7100000000000000000000000000000000000000000000000000000000600052604160045260246000fd5b7f4e487b7100000000000000000000000000000000000000000000000000000000600052603260045260246000fd5b6000602082840312156104f3576104f261022a565b5b60006105018482850161027d565b91505092915050565b61051381610254565b82525050565b600060208201905061052e600083018461050a565b92915050565b61053d81610392565b811461054857600080fd5b50565b60008151905061055a81610534565b92915050565b6000602082840312156105765761057561022a565b5b60006105848482850161054b565b91505092915050565b7f4e487b7100000000000000000000000000000000000000000000000000000000600052601160045260246000fd5b60006105c782610392565b91507fffffffffffffffffffffffffffffffffffffffffffffffffffffffffffffffff82036105f9576105f861058d565b5b60018201905091905056fea264697066735822122056e6250615c7ef94296872c0e785694f03c63fd8033c083a7c738e829512524864736f6c63430008110033",
  "linkReferences": {},
  "deployedLinkReferences": {}
}